{
  "_format": "hh-sol-artifact-1",
  "contractName": "MasterChefFarms",
  "sourceName": "contracts/MasterChefFarms.sol",
  "abi": [
    {
      "inputs": [
        {
          "internalType": "uint256[]",
          "name": "_protocolIds",
          "type": "uint256[]"
        },
        {
          "internalType": "address[]",
          "name": "_routers",
          "type": "address[]"
        },
        {
          "internalType": "address[]",
          "name": "_factories",
          "type": "address[]"
        },
        {
          "internalType": "address[]",
          "name": "_chefs",
          "type": "address[]"
        },
        {
          "internalType": "address",
          "name": "_platformOwner",
          "type": "address"
        }
      ],
      "stateMutability": "nonpayable",
      "type": "constructor"
    },
    {
      "anonymous": false,
      "inputs": [
        {
          "indexed": true,
          "internalType": "uint256",
          "name": "_protocolID",
          "type": "uint256"
        },
        {
          "indexed": true,
          "internalType": "uint256",
          "name": "_farmID",
          "type": "uint256"
        }
      ],
      "name": "DepositedToFarm",
      "type": "event"
    },
    {
      "anonymous": false,
      "inputs": [
        {
          "indexed": true,
          "internalType": "uint256",
          "name": "_protocolID",
          "type": "uint256"
        },
        {
          "indexed": true,
          "internalType": "uint256",
          "name": "_farmID",
          "type": "uint256"
        }
      ],
      "name": "withdrawnFromFarm",
      "type": "event"
    },
    {
      "inputs": [
        {
          "internalType": "uint256",
          "name": "_protocolId",
          "type": "uint256"
        },
        {
          "internalType": "uint256",
          "name": "_allocPoint",
          "type": "uint256"
        },
        {
          "internalType": "contract IBEP20",
          "name": "_lpToken",
          "type": "address"
        },
        {
          "internalType": "uint16",
          "name": "_depositFeeBP",
          "type": "uint16"
        },
        {
          "internalType": "bool",
          "name": "_withUpdate",
          "type": "bool"
        }
      ],
      "name": "add",
      "outputs": [],
      "stateMutability": "nonpayable",
      "type": "function"
    },
    {
      "inputs": [
        {
          "internalType": "uint256",
          "name": "_protocolId",
          "type": "uint256"
        },
        {
          "internalType": "address",
          "name": "_tokenA",
          "type": "address"
        },
        {
          "internalType": "address",
          "name": "_tokenB",
          "type": "address"
        },
        {
          "internalType": "uint256",
          "name": "_amountADesired",
          "type": "uint256"
        },
        {
          "internalType": "uint256",
          "name": "_amountBDesired",
          "type": "uint256"
        },
        {
          "internalType": "uint256",
          "name": "_amountAMin",
          "type": "uint256"
        },
        {
          "internalType": "uint256",
          "name": "_amountBMin",
          "type": "uint256"
        }
      ],
      "name": "addLiquidity",
      "outputs": [],
      "stateMutability": "nonpayable",
      "type": "function"
    },
    {
      "inputs": [
        {
          "internalType": "uint256",
          "name": "_protocolId",
          "type": "uint256"
        },
        {
          "internalType": "address",
          "name": "_token",
          "type": "address"
        },
        {
          "internalType": "uint256",
          "name": "_amountTokenDesired",
          "type": "uint256"
        },
        {
          "internalType": "uint256",
          "name": "_amountTokenMin",
          "type": "uint256"
        },
        {
          "internalType": "uint256",
          "name": "_amountETHMin",
          "type": "uint256"
        }
      ],
      "name": "addLiquidityETH",
      "outputs": [],
      "stateMutability": "nonpayable",
      "type": "function"
    },
    {
      "inputs": [
        {
          "internalType": "address",
          "name": "_tokenAddress",
          "type": "address"
        },
        {
          "internalType": "uint256",
          "name": "_amount",
          "type": "uint256"
        }
      ],
      "name": "depositFunds",
      "outputs": [],
      "stateMutability": "nonpayable",
      "type": "function"
    },
    {
      "inputs": [
        {
          "internalType": "uint256",
          "name": "_protocolId",
          "type": "uint256"
        },
        {
          "internalType": "address",
          "name": "_lpTokenAddress",
          "type": "address"
        },
        {
          "internalType": "uint256",
          "name": "_poolId",
          "type": "uint256"
        },
        {
          "internalType": "uint256",
          "name": "_amount",
          "type": "uint256"
        }
      ],
      "name": "depositToFarm",
      "outputs": [],
      "stateMutability": "nonpayable",
      "type": "function"
    },
    {
      "inputs": [
        {
          "internalType": "uint256",
          "name": "",
          "type": "uint256"
        }
      ],
      "name": "factoryAddress",
      "outputs": [
        {
          "internalType": "address",
          "name": "",
          "type": "address"
        }
      ],
      "stateMutability": "view",
      "type": "function"
    },
    {
      "inputs": [
        {
          "internalType": "uint256",
          "name": "_protocolId",
          "type": "uint256"
        },
        {
          "internalType": "address",
          "name": "tokenA",
          "type": "address"
        },
        {
          "internalType": "address",
          "name": "tokenB",
          "type": "address"
        },
        {
          "internalType": "uint256",
          "name": "amountADesired",
          "type": "uint256"
        },
        {
          "internalType": "uint256",
          "name": "amountBDesired",
          "type": "uint256"
        },
        {
          "internalType": "uint256",
          "name": "amountAMin",
          "type": "uint256"
        },
        {
          "internalType": "uint256",
          "name": "amountBMin",
          "type": "uint256"
        }
      ],
      "name": "getAmount",
      "outputs": [
        {
          "internalType": "uint256",
          "name": "amountA",
          "type": "uint256"
        },
        {
          "internalType": "uint256",
          "name": "amountB",
          "type": "uint256"
        }
      ],
      "stateMutability": "view",
      "type": "function"
    },
    {
      "inputs": [
        {
          "internalType": "uint256",
          "name": "_protocolId",
          "type": "uint256"
        },
        {
          "internalType": "uint256",
          "name": "_amountIn",
          "type": "uint256"
        },
        {
          "internalType": "address[]",
          "name": "_path",
          "type": "address[]"
        }
      ],
      "name": "getAmountsOut",
      "outputs": [
        {
          "internalType": "uint256[]",
          "name": "amounts",
          "type": "uint256[]"
        }
      ],
      "stateMutability": "view",
      "type": "function"
    },
    {
      "inputs": [
        {
          "internalType": "uint256",
          "name": "_protocolId",
          "type": "uint256"
        },
        {
          "internalType": "address",
          "name": "tokenA",
          "type": "address"
        },
        {
          "internalType": "address",
          "name": "tokenB",
          "type": "address"
        }
      ],
      "name": "getPair",
      "outputs": [
        {
          "internalType": "address",
          "name": "pairAddress",
          "type": "address"
        }
      ],
      "stateMutability": "view",
      "type": "function"
    },
    {
      "inputs": [
        {
          "internalType": "uint256",
          "name": "_protocolId",
          "type": "uint256"
        }
      ],
      "name": "getWETH",
      "outputs": [
        {
          "internalType": "address",
          "name": "weth",
          "type": "address"
        }
      ],
      "stateMutability": "view",
      "type": "function"
    },
    {
      "inputs": [],
      "name": "lastFeePercantege",
      "outputs": [
        {
          "internalType": "uint256",
          "name": "",
          "type": "uint256"
        }
      ],
      "stateMutability": "view",
      "type": "function"
    },
    {
      "inputs": [
        {
          "internalType": "uint256",
          "name": "",
          "type": "uint256"
        }
      ],
      "name": "masterchefAddress",
      "outputs": [
        {
          "internalType": "address",
          "name": "",
          "type": "address"
        }
      ],
      "stateMutability": "view",
      "type": "function"
    },
    {
      "inputs": [],
      "name": "owner",
      "outputs": [
        {
          "internalType": "address",
          "name": "",
          "type": "address"
        }
      ],
      "stateMutability": "view",
      "type": "function"
    },
    {
      "inputs": [
        {
          "internalType": "uint256",
          "name": "_protocolId",
          "type": "uint256"
        },
        {
          "internalType": "uint256",
          "name": "_poolId",
          "type": "uint256"
        }
      ],
      "name": "pendingRewards",
      "outputs": [],
      "stateMutability": "view",
      "type": "function"
    },
    {
      "inputs": [],
      "name": "platformOwner",
      "outputs": [
        {
          "internalType": "address",
          "name": "",
          "type": "address"
        }
      ],
      "stateMutability": "view",
      "type": "function"
    },
    {
      "inputs": [
        {
          "internalType": "uint256",
          "name": "_protocolId",
          "type": "uint256"
        }
      ],
      "name": "poolLength",
      "outputs": [
        {
          "internalType": "uint256",
          "name": "pools",
          "type": "uint256"
        }
      ],
      "stateMutability": "view",
      "type": "function"
    },
    {
      "inputs": [
        {
          "internalType": "uint256",
          "name": "_protocolId",
          "type": "uint256"
        },
        {
          "internalType": "address",
          "name": "_tokenA",
          "type": "address"
        },
        {
          "internalType": "address",
          "name": "_tokenB",
          "type": "address"
        },
        {
          "internalType": "uint256",
          "name": "_liquidity",
          "type": "uint256"
        },
        {
          "internalType": "uint256",
          "name": "_amountAMin",
          "type": "uint256"
        },
        {
          "internalType": "uint256",
          "name": "_amountBMin",
          "type": "uint256"
        }
      ],
      "name": "removeLiquidity",
      "outputs": [],
      "stateMutability": "nonpayable",
      "type": "function"
    },
    {
      "inputs": [
        {
          "internalType": "uint256",
          "name": "_protocolId",
          "type": "uint256"
        },
        {
          "internalType": "address",
          "name": "_token",
          "type": "address"
        },
        {
          "internalType": "uint256",
          "name": "_liquidity",
          "type": "uint256"
        },
        {
          "internalType": "uint256",
          "name": "_amountTokenMin",
          "type": "uint256"
        },
        {
          "internalType": "uint256",
          "name": "_amountETHMin",
          "type": "uint256"
        }
      ],
      "name": "removeLiquidityETH",
      "outputs": [],
      "stateMutability": "nonpayable",
      "type": "function"
    },
    {
      "inputs": [
        {
          "internalType": "uint256",
          "name": "",
          "type": "uint256"
        }
      ],
      "name": "routerAddress",
      "outputs": [
        {
          "internalType": "address",
          "name": "",
          "type": "address"
        }
      ],
      "stateMutability": "view",
      "type": "function"
    },
    {
      "inputs": [
        {
          "internalType": "uint256",
          "name": "_protocolId",
          "type": "uint256"
        },
        {
          "internalType": "address",
          "name": "token",
          "type": "address"
        },
        {
          "internalType": "uint256",
          "name": "amount",
          "type": "uint256"
        }
      ],
      "name": "safeTransfer",
      "outputs": [],
      "stateMutability": "nonpayable",
      "type": "function"
    },
    {
      "inputs": [
        {
          "internalType": "address",
          "name": "_platformOnwer",
          "type": "address"
        }
      ],
      "name": "setPlatformOwner",
      "outputs": [],
      "stateMutability": "nonpayable",
      "type": "function"
    },
    {
      "inputs": [
        {
          "internalType": "uint256",
          "name": "_protocolId",
          "type": "uint256"
        },
        {
          "internalType": "uint256",
          "name": "_amountOutMin",
          "type": "uint256"
        },
        {
          "internalType": "address[]",
          "name": "_path",
          "type": "address[]"
        },
        {
          "internalType": "address",
          "name": "to",
          "type": "address"
        }
      ],
      "name": "swapETHforToken",
      "outputs": [],
      "stateMutability": "payable",
      "type": "function"
    },
    {
      "inputs": [
        {
          "internalType": "uint256",
          "name": "_protocolId",
          "type": "uint256"
        },
        {
          "internalType": "uint256",
          "name": "_amountIn",
          "type": "uint256"
        },
        {
          "internalType": "uint256",
          "name": "_amountOutMin",
          "type": "uint256"
        },
        {
          "internalType": "address[]",
          "name": "_path",
          "type": "address[]"
        },
        {
          "internalType": "address",
          "name": "to",
          "type": "address"
        }
      ],
      "name": "swapTokenforToken",
      "outputs": [],
      "stateMutability": "nonpayable",
      "type": "function"
    },
    {
      "inputs": [
        {
          "internalType": "uint256",
          "name": "_protocolId",
          "type": "uint256"
        },
        {
          "internalType": "uint256",
          "name": "_poolId",
          "type": "uint256"
        },
        {
          "internalType": "uint256",
          "name": "_amount",
          "type": "uint256"
        }
      ],
      "name": "withdrawFromFarm",
      "outputs": [],
      "stateMutability": "nonpayable",
      "type": "function"
    },
    {
      "inputs": [
        {
          "internalType": "address",
          "name": "_tokenAddress",
          "type": "address"
        },
        {
          "internalType": "uint256",
          "name": "_amount",
          "type": "uint256"
        }
      ],
      "name": "withdrawFunds",
      "outputs": [],
      "stateMutability": "nonpayable",
      "type": "function"
    }
  ],
  "bytecode": "0x60806040523480156200001157600080fd5b50604051620036d4380380620036d4833981810160405260a08110156200003757600080fd5b81019080805160405193929190846401000000008211156200005857600080fd5b838201915060208201858111156200006f57600080fd5b82518660208202830111640100000000821117156200008d57600080fd5b8083526020830192505050908051906020019060200280838360005b83811015620000c6578082015181840152602081019050620000a9565b5050505090500160405260200180516040519392919084640100000000821115620000f057600080fd5b838201915060208201858111156200010757600080fd5b82518660208202830111640100000000821117156200012557600080fd5b8083526020830192505050908051906020019060200280838360005b838110156200015e57808201518184015260208101905062000141565b50505050905001604052602001805160405193929190846401000000008211156200018857600080fd5b838201915060208201858111156200019f57600080fd5b8251866020820283011164010000000082111715620001bd57600080fd5b8083526020830192505050908051906020019060200280838360005b83811015620001f6578082015181840152602081019050620001d9565b50505050905001604052602001805160405193929190846401000000008211156200022057600080fd5b838201915060208201858111156200023757600080fd5b82518660208202830111640100000000821117156200025557600080fd5b8083526020830192505050908051906020019060200280838360005b838110156200028e57808201518184015260208101905062000271565b505050509050016040526020018051906020019092919050505083518551148015620002bb575082518551145b8015620002c9575081518551145b6200033c576040517f08c379a000000000000000000000000000000000000000000000000000000000815260040180806020018281038252601b8152602001807f506172616d6574657273206e6f7420657175616c206c656e677468000000000081525060200191505060405180910390fd5b60005b8551811015620004c2578481815181106200035657fe5b60200260200101516000808884815181106200036e57fe5b6020026020010151815260200190815260200160002060006101000a81548173ffffffffffffffffffffffffffffffffffffffff021916908373ffffffffffffffffffffffffffffffffffffffff160217905550838181518110620003cf57fe5b602002602001015160016000888481518110620003e857fe5b6020026020010151815260200190815260200160002060006101000a81548173ffffffffffffffffffffffffffffffffffffffff021916908373ffffffffffffffffffffffffffffffffffffffff1602179055508281815181106200044957fe5b6020026020010151600260008884815181106200046257fe5b6020026020010151815260200190815260200160002060006101000a81548173ffffffffffffffffffffffffffffffffffffffff021916908373ffffffffffffffffffffffffffffffffffffffff1602179055508060010190506200033f565b5033600460006101000a81548173ffffffffffffffffffffffffffffffffffffffff021916908373ffffffffffffffffffffffffffffffffffffffff16021790555080600560006101000a81548173ffffffffffffffffffffffffffffffffffffffff021916908373ffffffffffffffffffffffffffffffffffffffff160217905550505050505061317a806200055a6000396000f3fe6080604052600436106101655760003560e01c80637c0c60c7116100d1578063a04403271161008a578063c107532911610064578063c107532914610ae2578063cae911af14610b3d578063e1efc7a014610ba2578063fa45bade14610c1b57610165565b8063a04403271461091f578063a66a735e14610984578063b67b1220146109f357610165565b80637c0c60c7146106145780638537f6b9146106d85780638da5cb5b14610785578063921b004b146107c6578063961095c5146108215780639a3771a3146108ba57610165565b80633db9a65e116101235780633db9a65e146104345780634df8ccb11461045f57806354daabc3146104a057806358871c81146104f15780635ef819ce1461056a5780636521975c146105af57610165565b80620c9fd51461016a57806302cc212f146101cf5780631546bb8d1461027457806315e7038b146102c35780631beed26c1461034257806329424c91146103e5575b600080fd5b34801561017657600080fd5b506101a36004803603602081101561018d57600080fd5b8101908080359060200190929190505050610cd9565b604051808273ffffffffffffffffffffffffffffffffffffffff16815260200191505060405180910390f35b3480156101db57600080fd5b50610248600480360360608110156101f257600080fd5b8101908080359060200190929190803573ffffffffffffffffffffffffffffffffffffffff169060200190929190803573ffffffffffffffffffffffffffffffffffffffff169060200190929190505050610d0c565b604051808273ffffffffffffffffffffffffffffffffffffffff16815260200191505060405180910390f35b34801561028057600080fd5b506102c16004803603606081101561029757600080fd5b81019080803590602001909291908035906020019092919080359060200190929190505050610e0a565b005b3480156102cf57600080fd5b50610340600480360360a08110156102e657600080fd5b810190808035906020019092919080359060200190929190803573ffffffffffffffffffffffffffffffffffffffff169060200190929190803561ffff169060200190929190803515159060200190929190505050610f0f565b005b34801561034e57600080fd5b506103e3600480360360e081101561036557600080fd5b8101908080359060200190929190803573ffffffffffffffffffffffffffffffffffffffff169060200190929190803573ffffffffffffffffffffffffffffffffffffffff16906020019092919080359060200190929190803590602001909291908035906020019092919080359060200190929190505050610fe8565b005b3480156103f157600080fd5b5061041e6004803603602081101561040857600080fd5b81019080803590602001909291905050506111a0565b6040518082815260200191505060405180910390f35b34801561044057600080fd5b5061044961125d565b6040518082815260200191505060405180910390f35b34801561046b57600080fd5b50610474611263565b604051808273ffffffffffffffffffffffffffffffffffffffff16815260200191505060405180910390f35b3480156104ac57600080fd5b506104ef600480360360208110156104c357600080fd5b81019080803573ffffffffffffffffffffffffffffffffffffffff169060200190929190505050611289565b005b3480156104fd57600080fd5b50610568600480360360a081101561051457600080fd5b8101908080359060200190929190803573ffffffffffffffffffffffffffffffffffffffff169060200190929190803590602001909291908035906020019092919080359060200190929190505050611327565b005b34801561057657600080fd5b506105ad6004803603604081101561058d57600080fd5b8101908080359060200190929190803590602001909291905050506114b7565b005b3480156105bb57600080fd5b506105e8600480360360208110156105d257600080fd5b8101908080359060200190929190505050611515565b604051808273ffffffffffffffffffffffffffffffffffffffff16815260200191505060405180910390f35b34801561062057600080fd5b506106d6600480360360a081101561063757600080fd5b810190808035906020019092919080359060200190929190803590602001909291908035906020019064010000000081111561067257600080fd5b82018360208201111561068457600080fd5b803590602001918460208302840111640100000000831117156106a657600080fd5b9091929391929390803573ffffffffffffffffffffffffffffffffffffffff1690602001909291905050506115d1565b005b610783600480360360808110156106ee57600080fd5b8101908080359060200190929190803590602001909291908035906020019064010000000081111561071f57600080fd5b82018360208201111561073157600080fd5b8035906020019184602083028401116401000000008311171561075357600080fd5b9091929391929390803573ffffffffffffffffffffffffffffffffffffffff1690602001909291905050506118ad565b005b34801561079157600080fd5b5061079a611b79565b604051808273ffffffffffffffffffffffffffffffffffffffff16815260200191505060405180910390f35b3480156107d257600080fd5b5061081f600480360360408110156107e957600080fd5b81019080803573ffffffffffffffffffffffffffffffffffffffff16906020019092919080359060200190929190505050611b9f565b005b34801561082d57600080fd5b506108b8600480360360c081101561084457600080fd5b8101908080359060200190929190803573ffffffffffffffffffffffffffffffffffffffff169060200190929190803573ffffffffffffffffffffffffffffffffffffffff169060200190929190803590602001909291908035906020019092919080359060200190929190505050611cc8565b005b3480156108c657600080fd5b506108f3600480360360208110156108dd57600080fd5b8101908080359060200190929190505050611e6b565b604051808273ffffffffffffffffffffffffffffffffffffffff16815260200191505060405180910390f35b34801561092b57600080fd5b506109586004803603602081101561094257600080fd5b8101908080359060200190929190505050611e9e565b604051808273ffffffffffffffffffffffffffffffffffffffff16815260200191505060405180910390f35b34801561099057600080fd5b506109f1600480360360808110156109a757600080fd5b8101908080359060200190929190803573ffffffffffffffffffffffffffffffffffffffff1690602001909291908035906020019092919080359060200190929190505050611ed1565b005b3480156109ff57600080fd5b50610a8b60048036036060811015610a1657600080fd5b81019080803590602001909291908035906020019092919080359060200190640100000000811115610a4757600080fd5b820183602082011115610a5957600080fd5b80359060200191846020830284011164010000000083111715610a7b57600080fd5b90919293919293905050506120bf565b6040518080602001828103825283818151815260200191508051906020019060200280838360005b83811015610ace578082015181840152602081019050610ab3565b505050509050019250505060405180910390f35b348015610aee57600080fd5b50610b3b60048036036040811015610b0557600080fd5b81019080803573ffffffffffffffffffffffffffffffffffffffff1690602001909291908035906020019092919050505061225a565b005b348015610b4957600080fd5b50610ba060048036036060811015610b6057600080fd5b8101908080359060200190929190803573ffffffffffffffffffffffffffffffffffffffff16906020019092919080359060200190929190505050612365565b005b348015610bae57600080fd5b50610c19600480360360a0811015610bc557600080fd5b8101908080359060200190929190803573ffffffffffffffffffffffffffffffffffffffff169060200190929190803590602001909291908035906020019092919080359060200190929190505050612494565b005b348015610c2757600080fd5b50610cbc600480360360e0811015610c3e57600080fd5b8101908080359060200190929190803573ffffffffffffffffffffffffffffffffffffffff169060200190929190803573ffffffffffffffffffffffffffffffffffffffff16906020019092919080359060200190929190803590602001909291908035906020019092919080359060200190929190505050612618565b604051808381526020018281526020019250505060405180910390f35b60016020528060005260406000206000915054906101000a900473ffffffffffffffffffffffffffffffffffffffff1681565b60006001600085815260200190815260200160002060009054906101000a900473ffffffffffffffffffffffffffffffffffffffff1673ffffffffffffffffffffffffffffffffffffffff1663e6a4390584846040518363ffffffff1660e01b8152600401808373ffffffffffffffffffffffffffffffffffffffff1681526020018273ffffffffffffffffffffffffffffffffffffffff1681526020019250505060206040518083038186803b158015610dc657600080fd5b505afa158015610dda573d6000803e3d6000fd5b505050506040513d6020811015610df057600080fd5b810190808051906020019092919050505090509392505050565b600560009054906101000a900473ffffffffffffffffffffffffffffffffffffffff1673ffffffffffffffffffffffffffffffffffffffff163373ffffffffffffffffffffffffffffffffffffffff1614610e6457600080fd5b6002600084815260200190815260200160002060009054906101000a900473ffffffffffffffffffffffffffffffffffffffff1673ffffffffffffffffffffffffffffffffffffffff1663441a3e7083836040518363ffffffff1660e01b81526004018083815260200182815260200192505050600060405180830381600087803b158015610ef257600080fd5b505af1158015610f06573d6000803e3d6000fd5b50505050505050565b6002600086815260200190815260200160002060009054906101000a900473ffffffffffffffffffffffffffffffffffffffff1673ffffffffffffffffffffffffffffffffffffffff166384e82a33858585856040518563ffffffff1660e01b8152600401808581526020018473ffffffffffffffffffffffffffffffffffffffff1681526020018361ffff1681526020018215158152602001945050505050600060405180830381600087803b158015610fc957600080fd5b505af1158015610fdd573d6000803e3d6000fd5b505050505050505050565b600560009054906101000a900473ffffffffffffffffffffffffffffffffffffffff1673ffffffffffffffffffffffffffffffffffffffff163373ffffffffffffffffffffffffffffffffffffffff161461104257600080fd5b60008088815260200190815260200160002060009054906101000a900473ffffffffffffffffffffffffffffffffffffffff1673ffffffffffffffffffffffffffffffffffffffff1663e8e337008787878787873061025842016040518963ffffffff1660e01b8152600401808973ffffffffffffffffffffffffffffffffffffffff1681526020018873ffffffffffffffffffffffffffffffffffffffff1681526020018781526020018681526020018581526020018481526020018373ffffffffffffffffffffffffffffffffffffffff16815260200182815260200198505050505050505050606060405180830381600087803b15801561114557600080fd5b505af1158015611159573d6000803e3d6000fd5b505050506040513d606081101561116f57600080fd5b8101908080519060200190929190805190602001909291908051906020019092919050505050505050505050505050565b60006002600083815260200190815260200160002060009054906101000a900473ffffffffffffffffffffffffffffffffffffffff1673ffffffffffffffffffffffffffffffffffffffff1663081e3eda6040518163ffffffff1660e01b815260040160206040518083038186803b15801561121b57600080fd5b505afa15801561122f573d6000803e3d6000fd5b505050506040513d602081101561124557600080fd5b81019080805190602001909291905050509050919050565b60035481565b600560009054906101000a900473ffffffffffffffffffffffffffffffffffffffff1681565b600560009054906101000a900473ffffffffffffffffffffffffffffffffffffffff1673ffffffffffffffffffffffffffffffffffffffff163373ffffffffffffffffffffffffffffffffffffffff16146112e357600080fd5b80600560006101000a81548173ffffffffffffffffffffffffffffffffffffffff021916908373ffffffffffffffffffffffffffffffffffffffff16021790555050565b600560009054906101000a900473ffffffffffffffffffffffffffffffffffffffff1673ffffffffffffffffffffffffffffffffffffffff163373ffffffffffffffffffffffffffffffffffffffff161461138157600080fd5b60008086815260200190815260200160002060009054906101000a900473ffffffffffffffffffffffffffffffffffffffff1673ffffffffffffffffffffffffffffffffffffffff1663f305d719858585853061025842016040518763ffffffff1660e01b8152600401808773ffffffffffffffffffffffffffffffffffffffff1681526020018681526020018581526020018481526020018373ffffffffffffffffffffffffffffffffffffffff1681526020018281526020019650505050505050606060405180830381600087803b15801561145e57600080fd5b505af1158015611472573d6000803e3d6000fd5b505050506040513d606081101561148857600080fd5b810190808051906020019092919080519060200190929190805190602001909291905050505050505050505050565b600560009054906101000a900473ffffffffffffffffffffffffffffffffffffffff1673ffffffffffffffffffffffffffffffffffffffff163373ffffffffffffffffffffffffffffffffffffffff161461151157600080fd5b5050565b600080600083815260200190815260200160002060009054906101000a900473ffffffffffffffffffffffffffffffffffffffff1673ffffffffffffffffffffffffffffffffffffffff1663ad5c46486040518163ffffffff1660e01b815260040160206040518083038186803b15801561158f57600080fd5b505afa1580156115a3573d6000803e3d6000fd5b505050506040513d60208110156115b957600080fd5b81019080805190602001909291905050509050919050565b828260008181106115de57fe5b9050602002013573ffffffffffffffffffffffffffffffffffffffff1673ffffffffffffffffffffffffffffffffffffffff1663095ea7b360008089815260200190815260200160002060009054906101000a900473ffffffffffffffffffffffffffffffffffffffff16670de0b6b3a76400006040518363ffffffff1660e01b8152600401808373ffffffffffffffffffffffffffffffffffffffff16815260200182815260200192505050602060405180830381600087803b1580156116a557600080fd5b505af11580156116b9573d6000803e3d6000fd5b505050506040513d60208110156116cf57600080fd5b81019080805190602001909291905050505060008087815260200190815260200160002060009054906101000a900473ffffffffffffffffffffffffffffffffffffffff1673ffffffffffffffffffffffffffffffffffffffff166338ed1739868686868661025842016040518763ffffffff1660e01b815260040180878152602001868152602001806020018473ffffffffffffffffffffffffffffffffffffffff1681526020018381526020018281038252868682818152602001925060200280828437600081840152601f19601f820116905080830192505050975050505050505050600060405180830381600087803b1580156117cf57600080fd5b505af11580156117e3573d6000803e3d6000fd5b505050506040513d6000823e3d601f19601f82011682018060405250602081101561180d57600080fd5b810190808051604051939291908464010000000082111561182d57600080fd5b8382019150602082018581111561184357600080fd5b825186602082028301116401000000008211171561186057600080fd5b8083526020830192505050908051906020019060200280838360005b8381101561189757808201518184015260208101905061187c565b5050505090500160405250505050505050505050565b828260008181106118ba57fe5b9050602002013573ffffffffffffffffffffffffffffffffffffffff1673ffffffffffffffffffffffffffffffffffffffff1663095ea7b360008088815260200190815260200160002060009054906101000a900473ffffffffffffffffffffffffffffffffffffffff16866040518363ffffffff1660e01b8152600401808373ffffffffffffffffffffffffffffffffffffffff16815260200182815260200192505050602060405180830381600087803b15801561197957600080fd5b505af115801561198d573d6000803e3d6000fd5b505050506040513d60208110156119a357600080fd5b81019080805190602001909291905050505060008086815260200190815260200160002060009054906101000a900473ffffffffffffffffffffffffffffffffffffffff1673ffffffffffffffffffffffffffffffffffffffff1663fb3bdb413486868686610e1042016040518763ffffffff1660e01b815260040180868152602001806020018473ffffffffffffffffffffffffffffffffffffffff1681526020018381526020018281038252868682818152602001925060200280828437600081840152601f19601f82011690508083019250505096505050505050506000604051808303818588803b158015611a9b57600080fd5b505af1158015611aaf573d6000803e3d6000fd5b50505050506040513d6000823e3d601f19601f820116820180604052506020811015611ada57600080fd5b8101908080516040519392919084640100000000821115611afa57600080fd5b83820191506020820185811115611b1057600080fd5b8251866020820283011164010000000082111715611b2d57600080fd5b8083526020830192505050908051906020019060200280838360005b83811015611b64578082015181840152602081019050611b49565b50505050905001604052505050505050505050565b600460009054906101000a900473ffffffffffffffffffffffffffffffffffffffff1681565b600460009054906101000a900473ffffffffffffffffffffffffffffffffffffffff1673ffffffffffffffffffffffffffffffffffffffff163373ffffffffffffffffffffffffffffffffffffffff1614611bf957600080fd5b8173ffffffffffffffffffffffffffffffffffffffff166323b872dd3330846040518463ffffffff1660e01b8152600401808473ffffffffffffffffffffffffffffffffffffffff1681526020018373ffffffffffffffffffffffffffffffffffffffff1681526020018281526020019350505050602060405180830381600087803b158015611c8857600080fd5b505af1158015611c9c573d6000803e3d6000fd5b505050506040513d6020811015611cb257600080fd5b8101908080519060200190929190505050505050565b600560009054906101000a900473ffffffffffffffffffffffffffffffffffffffff1673ffffffffffffffffffffffffffffffffffffffff163373ffffffffffffffffffffffffffffffffffffffff1614611d2257600080fd5b60008087815260200190815260200160002060009054906101000a900473ffffffffffffffffffffffffffffffffffffffff1673ffffffffffffffffffffffffffffffffffffffff1663baa2abde86868686863061025842016040518863ffffffff1660e01b8152600401808873ffffffffffffffffffffffffffffffffffffffff1681526020018773ffffffffffffffffffffffffffffffffffffffff1681526020018681526020018581526020018481526020018373ffffffffffffffffffffffffffffffffffffffff1681526020018281526020019750505050505050506040805180830381600087803b158015611e1c57600080fd5b505af1158015611e30573d6000803e3d6000fd5b505050506040513d6040811015611e4657600080fd5b8101908080519060200190929190805190602001909291905050505050505050505050565b60006020528060005260406000206000915054906101000a900473ffffffffffffffffffffffffffffffffffffffff1681565b60026020528060005260406000206000915054906101000a900473ffffffffffffffffffffffffffffffffffffffff1681565b600560009054906101000a900473ffffffffffffffffffffffffffffffffffffffff1673ffffffffffffffffffffffffffffffffffffffff163373ffffffffffffffffffffffffffffffffffffffff1614611f2b57600080fd5b8273ffffffffffffffffffffffffffffffffffffffff1663095ea7b36002600087815260200190815260200160002060009054906101000a900473ffffffffffffffffffffffffffffffffffffffff16670de0b6b3a76400006040518363ffffffff1660e01b8152600401808373ffffffffffffffffffffffffffffffffffffffff16815260200182815260200192505050602060405180830381600087803b158015611fd757600080fd5b505af1158015611feb573d6000803e3d6000fd5b505050506040513d602081101561200157600080fd5b8101908080519060200190929190505050506002600085815260200190815260200160002060009054906101000a900473ffffffffffffffffffffffffffffffffffffffff1673ffffffffffffffffffffffffffffffffffffffff1663e2bbb15883836040518363ffffffff1660e01b81526004018083815260200182815260200192505050600060405180830381600087803b1580156120a157600080fd5b505af11580156120b5573d6000803e3d6000fd5b5050505050505050565b606060008086815260200190815260200160002060009054906101000a900473ffffffffffffffffffffffffffffffffffffffff1673ffffffffffffffffffffffffffffffffffffffff1663d06ca61f8585856040518463ffffffff1660e01b815260040180848152602001806020018281038252848482818152602001925060200280828437600081840152601f19601f82011690508083019250505094505050505060006040518083038186803b15801561217b57600080fd5b505afa15801561218f573d6000803e3d6000fd5b505050506040513d6000823e3d601f19601f8201168201806040525060208110156121b957600080fd5b81019080805160405193929190846401000000008211156121d957600080fd5b838201915060208201858111156121ef57600080fd5b825186602082028301116401000000008211171561220c57600080fd5b8083526020830192505050908051906020019060200280838360005b83811015612243578082015181840152602081019050612228565b505050509050016040525050509050949350505050565b600460009054906101000a900473ffffffffffffffffffffffffffffffffffffffff1673ffffffffffffffffffffffffffffffffffffffff163373ffffffffffffffffffffffffffffffffffffffff16146122b457600080fd5b8173ffffffffffffffffffffffffffffffffffffffff1663a9059cbb33836040518363ffffffff1660e01b8152600401808373ffffffffffffffffffffffffffffffffffffffff16815260200182815260200192505050602060405180830381600087803b15801561232557600080fd5b505af1158015612339573d6000803e3d6000fd5b505050506040513d602081101561234f57600080fd5b8101908080519060200190929190505050505050565b6123a46040518060400160405280600e81526020017f53616665205472616e736665723a0000000000000000000000000000000000008152508261280f565b6123b082333084612916565b8173ffffffffffffffffffffffffffffffffffffffff1663095ea7b360008086815260200190815260200160002060009054906101000a900473ffffffffffffffffffffffffffffffffffffffff16836040518363ffffffff1660e01b8152600401808373ffffffffffffffffffffffffffffffffffffffff16815260200182815260200192505050602060405180830381600087803b15801561245357600080fd5b505af1158015612467573d6000803e3d6000fd5b505050506040513d602081101561247d57600080fd5b810190808051906020019092919050505050505050565b600560009054906101000a900473ffffffffffffffffffffffffffffffffffffffff1673ffffffffffffffffffffffffffffffffffffffff163373ffffffffffffffffffffffffffffffffffffffff16146124ee57600080fd5b60008086815260200190815260200160002060009054906101000a900473ffffffffffffffffffffffffffffffffffffffff1673ffffffffffffffffffffffffffffffffffffffff166302751cec858585853061025842016040518763ffffffff1660e01b8152600401808773ffffffffffffffffffffffffffffffffffffffff1681526020018681526020018581526020018481526020018373ffffffffffffffffffffffffffffffffffffffff16815260200182815260200196505050505050506040805180830381600087803b1580156125ca57600080fd5b505af11580156125de573d6000803e3d6000fd5b505050506040513d60408110156125f457600080fd5b81019080805190602001909291908051906020019092919050505050505050505050565b6000806000806126db6000808d815260200190815260200160002060009054906101000a900473ffffffffffffffffffffffffffffffffffffffff1673ffffffffffffffffffffffffffffffffffffffff1663c45a01556040518163ffffffff1660e01b815260040160206040518083038186803b15801561269957600080fd5b505afa1580156126ad573d6000803e3d6000fd5b505050506040513d60208110156126c357600080fd5b81019080805190602001909291905050508b8b612afb565b915091506000821480156126ef5750600081145b156127035787878094508195505050612801565b6000612710898484612c24565b90508781116127815785811015612772576040517f08c379a000000000000000000000000000000000000000000000000000000000815260040180806020018281038252602381526020018061306d6023913960400191505060405180910390fd5b888180955081965050506127ff565b600061278e898486612c24565b90508981111561279a57fe5b878110156127f3576040517f08c379a00000000000000000000000000000000000000000000000000000000081526004018080602001828103825260238152602001806130d96023913960400191505060405180910390fd5b80898096508197505050505b505b505097509795505050505050565b61291282826040516024018080602001838152602001828103825284818151815260200191508051906020019080838360005b8381101561285d578082015181840152602081019050612842565b50505050905090810190601f16801561288a5780820380516001836020036101000a031916815260200191505b5093505050506040516020818303038152906040527f9710a9d0000000000000000000000000000000000000000000000000000000007bffffffffffffffffffffffffffffffffffffffffffffffffffffffff19166020820180517bffffffffffffffffffffffffffffffffffffffffffffffffffffffff8381831617835250505050612d08565b5050565b600060608573ffffffffffffffffffffffffffffffffffffffff166323b872dd868686604051602401808473ffffffffffffffffffffffffffffffffffffffff1681526020018373ffffffffffffffffffffffffffffffffffffffff16815260200182815260200193505050506040516020818303038152906040529060e01b6020820180517bffffffffffffffffffffffffffffffffffffffffffffffffffffffff83818316178352505050506040518082805190602001908083835b602083106129f757805182526020820191506020810190506020830392506129d4565b6001836020036101000a0380198251168184511680821785525050505050509050019150506000604051808303816000865af19150503d8060008114612a59576040519150601f19603f3d011682016040523d82523d6000602084013e612a5e565b606091505b5091509150818015612a9e5750600081511480612a9d5750808060200190516020811015612a8b57600080fd5b81019080805190602001909291905050505b5b612af3576040517f08c379a00000000000000000000000000000000000000000000000000000000081526004018080602001828103825260248152602001806131216024913960400191505060405180910390fd5b505050505050565b6000806000612b0a8585612d31565b509050600080612b1b888888612ea8565b73ffffffffffffffffffffffffffffffffffffffff16630902f1ac6040518163ffffffff1660e01b815260040160606040518083038186803b158015612b6057600080fd5b505afa158015612b74573d6000803e3d6000fd5b505050506040513d6060811015612b8a57600080fd5b81019080805190602001909291908051906020019092919080519060200190929190505050506dffffffffffffffffffffffffffff1691506dffffffffffffffffffffffffffff1691508273ffffffffffffffffffffffffffffffffffffffff168773ffffffffffffffffffffffffffffffffffffffff1614612c0e578082612c11565b81815b8095508196505050505050935093915050565b6000808411612c7e576040517f08c379a00000000000000000000000000000000000000000000000000000000081526004018080602001828103825260258152602001806130fc6025913960400191505060405180910390fd5b600083118015612c8e5750600082115b612ce3576040517f08c379a00000000000000000000000000000000000000000000000000000000081526004018080602001828103825260288152602001806130906028913960400191505060405180910390fd5b82612cf78386612fc190919063ffffffff16565b81612cfe57fe5b0490509392505050565b60008151905060006a636f6e736f6c652e6c6f679050602083016000808483855afa5050505050565b6000808273ffffffffffffffffffffffffffffffffffffffff168473ffffffffffffffffffffffffffffffffffffffff161415612db9576040517f08c379a00000000000000000000000000000000000000000000000000000000081526004018080602001828103825260258152602001806130486025913960400191505060405180910390fd5b8273ffffffffffffffffffffffffffffffffffffffff168473ffffffffffffffffffffffffffffffffffffffff1610612df3578284612df6565b83835b8092508193505050600073ffffffffffffffffffffffffffffffffffffffff168273ffffffffffffffffffffffffffffffffffffffff161415612ea1576040517f08c379a000000000000000000000000000000000000000000000000000000000815260040180806020018281038252601e8152602001807f556e697377617056324c6962726172793a205a45524f5f41444452455353000081525060200191505060405180910390fd5b9250929050565b6000806000612eb78585612d31565b91509150858282604051602001808373ffffffffffffffffffffffffffffffffffffffff1660601b81526014018273ffffffffffffffffffffffffffffffffffffffff1660601b8152601401925050506040516020818303038152906040528051906020012060405160200180807fff000000000000000000000000000000000000000000000000000000000000008152506001018373ffffffffffffffffffffffffffffffffffffffff1660601b8152601401828152602001807f96e8ac4277198ff8b6f785478aa9a39f403cb768dd02cbee326c3e7da348845f815250602001925050506040516020818303038152906040528051906020012060001c925050509392505050565b600080831415612fd45760009050613041565b6000828402905082848281612fe557fe5b041461303c576040517f08c379a00000000000000000000000000000000000000000000000000000000081526004018080602001828103825260218152602001806130b86021913960400191505060405180910390fd5b809150505b9291505056fe556e697377617056324c6962726172793a204944454e544943414c5f414444524553534553537069726974526f757465723a20494e53554646494349454e545f425f414d4f554e54556e697377617056324c6962726172793a20494e53554646494349454e545f4c4951554944495459536166654d6174683a206d756c7469706c69636174696f6e206f766572666c6f77537069726974526f757465723a20494e53554646494349454e545f415f414d4f554e54556e697377617056324c6962726172793a20494e53554646494349454e545f414d4f554e545472616e7366657248656c7065723a205452414e534645525f46524f4d5f4641494c4544a264697066735822122013cb092d7ade1c83a6a1a61776b7c461f6f5f811075c2b733d9e01e0d007b26664736f6c634300060c0033",
  "linkReferences": {},
  "deployedLinkReferences": {}
}